:020000040800F2
:1000000000500020690600080D06000813060008CD
:10001000190600081F060008250600080000000059
:100020000000000000000000000000002B06000897
:100030003706000800000000430600084F060008CD
:10004000B1060008B1060008B1060008B1060008B4
:10005000B1060008B1060008B1060008B1060008A4
:10006000B1060008B1060008B1060008B106000894
:10007000B1060008B1060008B1060008B106000884
:10008000B1060008B1060008B1060008B106000874
:10009000B1060008B1060008B1060008B106000864
:1000A000B1060008B1060008B1060008B106000854
:1000B000B1060008B1060008B1060008B106000844
:1000C000B1060008B1060008B1060008B106000834
:1000D000B1060008B1060008B1060008B106000824
:1000E000B1060008B1060008B106000800000000D3
:1000F0000000000000000000000000000000000000
:0C01000000000000000000005FF808F1A3
:10010C0010B5054C237833B9044B13B10448AFF345
:10011C0000800123237010BD0400002000000000AB
:10012C00EC09000808B5034B1BB103490348AFF3B6
:10013C00008008BD0000000008000020EC09000849
:10014C0080B485B000AF78607B6803F00703FB6078
:10015C000C4BDB68BB60BA684FF6FF031340BB6007
:10016C00FB681A02BB68134343F0BF6343F40033CC
:10017C00BB60044ABB68D36000BF1437BD4680BC6B
:10018C00704700BF00ED00E080B400AF044BDB68AB
:10019C001B0A03F007031846BD4680BC704700BF1E
:1001AC0000ED00E080B483B000AF03463960FB7112
:1001BC0097F90730002B0ADB3B68DAB20C4997F948
:1001CC0007301201D2B20B4483F800230AE03B68DB
:1001DC00DAB20849FB7903F00F03043B1201D2B2E7
:1001EC000B441A7600BF0C37BD4680BC704700BF6D
:1001FC0000E100E000ED00E080B489B000AFF860F1
:10020C00B9607A60FB6803F00703FB61FB69C3F11B
:10021C000703042B28BF0423BB61FB690433062BA3
:10022C0002D9FB69033B00E000237B614FF0FF32F6
:10023C00BB6902FA03F3DA43BB681A407B699A4044
:10024C004FF0FF317B6901FA03F3D9437B680B4014
:10025C00134318462437BD4680BC704780B400AFAA
:10026C00044B1B68034A43F48033136000BFBD4644
:10027C0080BC70470010024080B400AF064B1B6876
:10028C0003F40033B3F5003F0CBF01230023DBB2B2
:10029C001846BD4680BC70470010024080B483B045
:1002AC0000AF7860064B5B6823F0030204497B685F
:1002BC0013434B6000BF0C37BD4680BC704700BF7A
:1002CC000010024080B400AF034B5B6803F00C03DA
:1002DC001846BD4680BC70470010024080B483B005
:1002EC0000AF7860064B5B6823F0F00204497B6832
:1002FC0013434B6000BF0C37BD4680BC704700BF3A
:10030C000010024080B483B000AF7860064B5B688D
:10031C0023F4E06204497B6813434B6000BF0C3745
:10032C00BD4680BC704700BF0010024080B483B053
:10033C0000AF7860064B5B6823F4605204497B681D
:10034C0013434B6000BF0C37BD4680BC704700BFE9
:10035C000010024080B400AF044B1B68034A43F00A
:10036C008073136000BFBD4680BC70470010024014
:10037C0080B400AF064B1B6803F00073B3F1007F31
:10038C000CBF01230023DBB21846BD4680BC70476E
:10039C000010024080B483B000AF78603960084B25
:1003AC005B6823F47C127B6803F440313B680B439D
:1003BC00034913434B6000BF0C37BD4680BC7047EC
:1003CC000010024080B485B000AF7860084BDA6949
:1003DC0007497B681343CB61054BDA697B68134093
:1003EC00FB60FB6800BF1437BD4680BC704700BF84
:1003FC000010024080B485B000AF7860084B9A6959
:10040C0007497B6813438B61054B9A697B681340E2
:10041C00FB60FB6800BF1437BD4680BC704700BF53
:10042C000010024080B483B000AF7860064B1B68AC
:10043C0023F0070204497B6813430B6000BF0C37A1
:10044C00BD4680BC704700BF0020024080B400AFA6
:10045C00034B1B6803F007031846BD4680BC70476E
:10046C000020024080B483B000AF786039603B68F4
:10047C001B0A9AB27B681A6100BF0C37BD4680BC60
:10048C00704780B483B000AF786039603B681B0A5A
:10049C009AB27B685A6100BF0C37BD4680BC70476E
:1004AC0080B400AF054B5B6823F0E063034A43F074
:1004BC000073536000BFBD4680BC70470000014014
:1004CC0080B500AF0120FFF795FF4FF08050FFF78C
:1004DC0079FF0320FFF734FEFFF756FE0346002298
:1004EC000F211846FFF788FE034619464FF0FF30E0
:1004FC00FFF758FEFFF7D4FF00F018F800F054F89F
:10050C0008490948FFF7AEFF4FF47A7000F012FA71
:10051C0004490548FFF7B5FF4FF47A7000F00AFA6A
:10052C00EEE700BF200020040010014080B500AFB2
:10053C000220FFF777FF00BFFFF788FF0346022B6F
:10054C00FAD1FFF78BFE00BFFFF796FE0346012B97
:10055C00FAD14FF4E0114FF48030FFF71BFFFFF797
:10056C00F9FE00BFFFF704FF0346012BFAD1002070
:10057C00FFF7B4FE4FF48060FFF7C4FE0020FFF7D6
:10058C00D5FE0220FFF78AFE00BFFFF79BFE034655
:10059C00082BFAD1034800F0BFF9024800F0EEF93D
:1005AC0000BF80BD00A24A0480B586B000AF3B1DE1
:1005BC0000221A605A609A60DA601A611020FFF704
:1005CC0019FF2020FFF716FF0420FFF713FF0A493D
:1005DC000A48FFF756FF084B7B600123BB600223E0
:1005EC00FB6000233B613B1D1946044800F013F9E6
:1005FC0000BF1837BD4680BD20002004001001400C
:10060C0080B400AFFEE780B400AFFEE780B400AF6B
:10061C00FEE780B400AFFEE780B400AFFEE780B425
:10062C0000AF00BFBD4680BC704780B400AF00BFB8
:10063C00BD4680BC704780B400AF00BFBD4680BCD7
:10064C00704780B400AF00BFBD4680BC704780B41B
:10065C0000AF00BFBD4680BC70470000FFF7F7FF3E
:10066C000B480C490C4A002302E0D458C450043304
:10067C00C4188C42F9D3094A094C002301E01360D9
:10068C000432A242FBD300F087F9FFF719FF704741
:10069C0000000020040000200C0A000804000020C8
:1006AC0020000020FEE790B488B000AFF860B9607D
:1006BC007A60FB681A46BB681B0E13441C46226802
:1006CC00BB687B617B6993FAA3F33B613B69B3FA2B
:1006DC0083F3DBB29B000F2101FA03F3DB431A40D7
:1006EC00BB68FB61FB6993FAA3F3BB61BB69B3FA0B
:1006FC0083F3DBB29B00796801FA03F313432360A5
:10070C0000BF2037BD4690BC704790B488B000AF96
:10071C00F860B9607A60FB681A46BB681B0E13441C
:10072C001C462268BB687B617B6993FAA3F33B612F
:10073C003B69B3FA83F3DBB29B00032101FA03F3A9
:10074C00DB431A40BB68FB61FB6993FAA3F3BB6103
:10075C00BB69B3FA83F3DBB29B00796801FA03F34C
:10076C001343236000BF2037BD4690BC704790B444
:10077C0088B000AFF860B9607A60FB681A46BB6855
:10078C001B0E13441C462268BB687B617B6993FA81
:10079C00A3F33B613B69B3FA83F3DBB29B00042107
:1007AC0001FA03F3DB431A40BB68FB61FB6993FA64
:1007BC00A3F3BB61BB69B3FA83F3DBB29B0079682B
:1007CC0001FA03F31343236000BF2037BD4690BCEE
:1007DC00704780B487B000AFF860B9607A60FB688E
:1007EC00DA68BB681B0ADB431A40BB681B0A7B61D7
:1007FC007B6993FAA3F33B613B69B3FA83F3DBB2F6
:10080C0019467B688B401A43FB68DA6000BF1C37C3
:10081C00BD4680BC704780B588B000AF7860396049
:10082C003B681B681B021B0C7B617B693B613B6952
:10083C0093FAA3F3FB60FB68B3FA83F3DBB2FB61BF
:10084C0044E00122FB699A407B691340002B3AD0AB
:10085C00FB69072B06D840F20112FB6902FA03F37D
:10086C00BB6108E0FB69083B4FF0011202FA03F38D
:10087C0043F08063BB613B685B68082B06D13B6827
:10088C001B691A46B9697868FFF7A3FF3B685B6878
:10089C001A46B9697868FFF706FF3B685B68012B5D
:1008AC0003D03B685B68092B0DD13B689B681A46EB
:1008BC00B9697868FFF729FF3B68DB681A46B969A4
:1008CC007868FFF754FFFB690133FB617A69FB69B8
:1008DC0022FA03F3002BB4D1002318462037BD466F
:1008EC0080BD000080B483B000AF786039607A6856
:1008FC003B68B2FBF3F3074A013B5360054B002204
:10090C009A60044B05221A6000BF0C37BD4680BCB0
:10091C00704700BF10E000E080B582B000AF786097
:10092C004FF47A717868FFF7DDFF00BF0837BD46DA
:10093C0080BD000080B485B000AF78600E4B1B68A2
:10094C00FB60FB687B68B3F1FF3F0CD07B68013325
:10095C007B6008E0084B1B6803F48033002B02D04B
:10096C007B68013B7B607B68002BF3D100BF00BF31
:10097C001437BD4680BC704710E000E080B483B0F3
:10098C0000AF7860034A7B68136000BF0C37BD462C
:10099C0080BC70470000002070B500260C4D0D4C3B
:1009AC00641BA410A64209D100F01AF800260A4DC7
:1009BC000A4C641BA410A64205D170BD55F8043B2B
:1009CC0098470136EEE755F8043B98470136F2E7B5
:1009DC00040A0008040A0008040A0008080A0008AF
:1009EC00F8B500BFF8BC08BC9E467047F8B500BF10
:0809FC00F8BC08BC9E467047E0
:040A040031010008B4
:040A08000D010008D4
:040A0C000024F400CE
:040000050800066980
:00000001FF
